{
  "contractName": "ChocoAuction",
  "abi": [
    {
      "constant": true,
      "inputs": [],
      "name": "beneficiary",
      "outputs": [
        {
          "name": "",
          "type": "address"
        }
      ],
      "payable": false,
      "stateMutability": "view",
      "type": "function",
      "signature": "0x38af3eed"
    },
    {
      "constant": true,
      "inputs": [],
      "name": "highestBidder",
      "outputs": [
        {
          "name": "",
          "type": "address"
        }
      ],
      "payable": false,
      "stateMutability": "view",
      "type": "function",
      "signature": "0x91f90157"
    },
    {
      "constant": true,
      "inputs": [],
      "name": "sixmonth",
      "outputs": [
        {
          "name": "",
          "type": "uint256"
        }
      ],
      "payable": false,
      "stateMutability": "view",
      "type": "function",
      "signature": "0xa3143c38"
    },
    {
      "constant": true,
      "inputs": [],
      "name": "biddingTime",
      "outputs": [
        {
          "name": "",
          "type": "uint256"
        }
      ],
      "payable": false,
      "stateMutability": "view",
      "type": "function",
      "signature": "0xd074a38d"
    },
    {
      "constant": true,
      "inputs": [],
      "name": "highestBid",
      "outputs": [
        {
          "name": "",
          "type": "uint256"
        }
      ],
      "payable": false,
      "stateMutability": "view",
      "type": "function",
      "signature": "0xd57bde79"
    },
    {
      "inputs": [],
      "payable": true,
      "stateMutability": "payable",
      "type": "constructor",
      "signature": "constructor"
    },
    {
      "anonymous": false,
      "inputs": [
        {
          "indexed": false,
          "name": "bidder",
          "type": "address"
        },
        {
          "indexed": false,
          "name": "amount",
          "type": "uint256"
        }
      ],
      "name": "HighestBidIncreased",
      "type": "event",
      "signature": "0xf4757a49b326036464bec6fe419a4ae38c8a02ce3e68bf0809674f6aab8ad300"
    },
    {
      "anonymous": false,
      "inputs": [
        {
          "indexed": false,
          "name": "winner",
          "type": "address"
        },
        {
          "indexed": false,
          "name": "amount",
          "type": "uint256"
        }
      ],
      "name": "AuctionEnded",
      "type": "event",
      "signature": "0xdaec4582d5d9595688c8c98545fdd1c696d41c6aeaeb636737e84ed2f5c00eda"
    },
    {
      "constant": false,
      "inputs": [],
      "name": "bid",
      "outputs": [
        {
          "name": "",
          "type": "bool"
        }
      ],
      "payable": true,
      "stateMutability": "payable",
      "type": "function",
      "signature": "0x1998aeef"
    },
    {
      "constant": false,
      "inputs": [],
      "name": "rebidding",
      "outputs": [
        {
          "name": "",
          "type": "bool"
        }
      ],
      "payable": true,
      "stateMutability": "payable",
      "type": "function",
      "signature": "0xcdf8b6bf"
    },
    {
      "constant": false,
      "inputs": [],
      "name": "auctionEnd",
      "outputs": [
        {
          "name": "",
          "type": "bool"
        }
      ],
      "payable": false,
      "stateMutability": "nonpayable",
      "type": "function",
      "signature": "0x2a24f46c"
    },
    {
      "constant": true,
      "inputs": [],
      "name": "myPendingFunds",
      "outputs": [
        {
          "name": "",
          "type": "uint256"
        }
      ],
      "payable": false,
      "stateMutability": "view",
      "type": "function",
      "signature": "0xbc87f620"
    },
    {
      "constant": true,
      "inputs": [],
      "name": "isClosed",
      "outputs": [
        {
          "name": "",
          "type": "bool"
        }
      ],
      "payable": false,
      "stateMutability": "view",
      "type": "function",
      "signature": "0xc2b6b58c"
    },
    {
      "constant": false,
      "inputs": [],
      "name": "withdrawPendings",
      "outputs": [
        {
          "name": "",
          "type": "bool"
        }
      ],
      "payable": false,
      "stateMutability": "nonpayable",
      "type": "function",
      "signature": "0x4ae203cc"
    }
  ],
  "bytecode": "0x60806040526001600560006101000a81548160ff021916908315150217905550336000806101000a81548173ffffffffffffffffffffffffffffffffffffffff021916908373ffffffffffffffffffffffffffffffffffffffff1602179055506101f46004819055506004544201600381905550611134806100826000396000f3fe6080604052600436106100af576000357c0100000000000000000000000000000000000000000000000000000000900463ffffffff1680631998aeef146100b45780632a24f46c146100d657806338af3eed146101055780634ae203cc1461015c57806391f901571461018b578063a3143c38146101e2578063bc87f6201461020d578063c2b6b58c14610238578063cdf8b6bf14610267578063d074a38d14610289578063d57bde79146102b4575b600080fd5b6100bc6102df565b604051808215151515815260200191505060405180910390f35b3480156100e257600080fd5b506100eb6106fb565b604051808215151515815260200191505060405180910390f35b34801561011157600080fd5b5061011a610965565b604051808273ffffffffffffffffffffffffffffffffffffffff1673ffffffffffffffffffffffffffffffffffffffff16815260200191505060405180910390f35b34801561016857600080fd5b5061017161098a565b604051808215151515815260200191505060405180910390f35b34801561019757600080fd5b506101a0610b8d565b604051808273ffffffffffffffffffffffffffffffffffffffff1673ffffffffffffffffffffffffffffffffffffffff16815260200191505060405180910390f35b3480156101ee57600080fd5b506101f7610bb3565b6040518082815260200191505060405180910390f35b34801561021957600080fd5b50610222610bb9565b6040518082815260200191505060405180910390f35b34801561024457600080fd5b5061024d610c00565b604051808215151515815260200191505060405180910390f35b61026f610c18565b604051808215151515815260200191505060405180910390f35b34801561029557600080fd5b5061029e6110ba565b6040518082815260200191505060405180910390f35b3480156102c057600080fd5b506102c96110c0565b6040518082815260200191505060405180910390f35b600060011515600560009054906101000a900460ff161515141515610392576040517f08c379a00000000000000000000000000000000000000000000000000000000081526004018080602001828103825260318152602001807f497320746f6f206c61746520746f206d616b652061206269642e20546865206181526020017f756374696f6e2068617320656e6465642e00000000000000000000000000000081525060400191505060405180910390fd5b600254600660003373ffffffffffffffffffffffffffffffffffffffff1673ffffffffffffffffffffffffffffffffffffffff168152602001908152602001600020543401111515610472576040517f08c379a00000000000000000000000000000000000000000000000000000000081526004018080602001828103825260368152602001807f54686520616d6f756e74206973206e6f7420656e6f75676820746f206f76657281526020017f636f6d65207468652070726576696f7573206269642e0000000000000000000081525060400191505060405180910390fd5b61047a6110c6565b50600160009054906101000a900473ffffffffffffffffffffffffffffffffffffffff1673ffffffffffffffffffffffffffffffffffffffff163373ffffffffffffffffffffffffffffffffffffffff1614151515610567576040517f08c379a00000000000000000000000000000000000000000000000000000000081526004018080602001828103825260248152602001807f486967686573744269646465722063616e6e6f74206d616b652072656269646481526020017f696e672e0000000000000000000000000000000000000000000000000000000081525060400191505060405180910390fd5b6000600660003373ffffffffffffffffffffffffffffffffffffffff1673ffffffffffffffffffffffffffffffffffffffff16815260200190815260200160002054141515610644576040517f08c379a00000000000000000000000000000000000000000000000000000000081526004018080602001828103825260288152602001807f596f75206861766520612070656e64696e6720666f756e642c206d616b65207281526020017f6562696464696e6700000000000000000000000000000000000000000000000081525060400191505060405180910390fd5b60025460066000600160009054906101000a900473ffffffffffffffffffffffffffffffffffffffff1673ffffffffffffffffffffffffffffffffffffffff1673ffffffffffffffffffffffffffffffffffffffff168152602001908152602001600020819055503460028190555033600160006101000a81548173ffffffffffffffffffffffffffffffffffffffff021916908373ffffffffffffffffffffffffffffffffffffffff1602179055506001905090565b60008060009054906101000a900473ffffffffffffffffffffffffffffffffffffffff1673ffffffffffffffffffffffffffffffffffffffff163373ffffffffffffffffffffffffffffffffffffffff161415156107e7576040517f08c379a00000000000000000000000000000000000000000000000000000000081526004018080602001828103825260288152602001807f4f6e6c792062656e65666963696172792063616e2063616c6c2074686973206681526020017f756e6374696f6e2e00000000000000000000000000000000000000000000000081525060400191505060405180910390fd5b60035442111515610860576040517f08c379a00000000000000000000000000000000000000000000000000000000081526004018080602001828103825260188152602001807f41756374696f6e2069736e277420656e646564207965742e000000000000000081525060200191505060405180910390fd5b7fdaec4582d5d9595688c8c98545fdd1c696d41c6aeaeb636737e84ed2f5c00eda600160009054906101000a900473ffffffffffffffffffffffffffffffffffffffff16600254604051808373ffffffffffffffffffffffffffffffffffffffff1673ffffffffffffffffffffffffffffffffffffffff1681526020018281526020019250505060405180910390a16000809054906101000a900473ffffffffffffffffffffffffffffffffffffffff1673ffffffffffffffffffffffffffffffffffffffff166108fc6002549081150290604051600060405180830381858888f19350505050158015610958573d6000803e3d6000fd5b506109616110c6565b5090565b6000809054906101000a900473ffffffffffffffffffffffffffffffffffffffff1681565b600080600660003373ffffffffffffffffffffffffffffffffffffffff1673ffffffffffffffffffffffffffffffffffffffff16815260200190815260200160002054111515610a68576040517f08c379a000000000000000000000000000000000000000000000000000000000815260040180806020018281038252602a8152602001807f596f7520646f6e2774206861766520616e792066756e6473206f6e207468697381526020017f20636f6e74726163742e0000000000000000000000000000000000000000000081525060400191505060405180910390fd5b6000600660003373ffffffffffffffffffffffffffffffffffffffff1673ffffffffffffffffffffffffffffffffffffffff1681526020019081526020016000205490506000811115610b84576000600660003373ffffffffffffffffffffffffffffffffffffffff1673ffffffffffffffffffffffffffffffffffffffff168152602001908152602001600020819055503373ffffffffffffffffffffffffffffffffffffffff166108fc829081150290604051600060405180830381858888f193505050501515610b835780600660003373ffffffffffffffffffffffffffffffffffffffff1673ffffffffffffffffffffffffffffffffffffffff168152602001908152602001600020819055506000915050610b8a565b5b60019150505b90565b600160009054906101000a900473ffffffffffffffffffffffffffffffffffffffff1681565b60045481565b6000600660003373ffffffffffffffffffffffffffffffffffffffff1673ffffffffffffffffffffffffffffffffffffffff16815260200190815260200160002054905090565b6000600560009054906101000a900460ff1615905090565b600060011515600560009054906101000a900460ff161515141515610ccb576040517f08c379a00000000000000000000000000000000000000000000000000000000081526004018080602001828103825260318152602001807f497320746f6f206c61746520746f206d616b652061206269642e20546865206181526020017f756374696f6e2068617320656e6465642e00000000000000000000000000000081525060400191505060405180910390fd5b600254600660003373ffffffffffffffffffffffffffffffffffffffff1673ffffffffffffffffffffffffffffffffffffffff168152602001908152602001600020543401111515610dab576040517f08c379a00000000000000000000000000000000000000000000000000000000081526004018080602001828103825260368152602001807f54686520616d6f756e74206973206e6f7420656e6f75676820746f206f76657281526020017f636f6d65207468652070726576696f7573206269642e0000000000000000000081525060400191505060405180910390fd5b610db36110c6565b50600160009054906101000a900473ffffffffffffffffffffffffffffffffffffffff1673ffffffffffffffffffffffffffffffffffffffff163373ffffffffffffffffffffffffffffffffffffffff1614151515610ea0576040517f08c379a00000000000000000000000000000000000000000000000000000000081526004018080602001828103825260248152602001807f486967686573744269646465722063616e6e6f74206d616b652072656269646481526020017f696e672e0000000000000000000000000000000000000000000000000000000081525060400191505060405180910390fd5b6000600660003373ffffffffffffffffffffffffffffffffffffffff1673ffffffffffffffffffffffffffffffffffffffff16815260200190815260200160002054111515610f7d576040517f08c379a00000000000000000000000000000000000000000000000000000000081526004018080602001828103825260338152602001807f546869732066756e6374696f6e206f6e6c7920776f726b20696620796f75206881526020017f6176652061206f76657263616d65206269642e0000000000000000000000000081525060400191505060405180910390fd5b60025460066000600160009054906101000a900473ffffffffffffffffffffffffffffffffffffffff1673ffffffffffffffffffffffffffffffffffffffff1673ffffffffffffffffffffffffffffffffffffffff16815260200190815260200160002081905550600660003373ffffffffffffffffffffffffffffffffffffffff1673ffffffffffffffffffffffffffffffffffffffff1681526020019081526020016000205434016002819055506000600660003373ffffffffffffffffffffffffffffffffffffffff1673ffffffffffffffffffffffffffffffffffffffff1681526020019081526020016000208190555033600160006101000a81548173ffffffffffffffffffffffffffffffffffffffff021916908373ffffffffffffffffffffffffffffffffffffffff1602179055506001905090565b60035481565b60025481565b6000426003541015611104576000600560006101000a81548160ff021916908315150217905550600560009054906101000a900460ff169050611105565b5b9056fea165627a7a72305820acfc11a7684f87c8f42cca87fdfab45afb6133a4cb54557707cdaf6199c26ef60029",
  "source": "pragma solidity ^0.5.0;\r\n\r\ncontract ChocoAuction{\r\n    address payable public beneficiary;\r\n    address public highestBidder;\r\n    uint public highestBid;\r\n    uint public biddingTime;\r\n    uint public sixmonth;\r\n    bool open = true;\r\n\r\n    mapping(address => uint) pendingReturns;\r\n\r\n    modifier isOpen(){\r\n        require(open == true,\r\n        \"Is too late to make a bid. The auction has ended.\"\r\n        );\r\n        _;\r\n    }\r\n\r\n    modifier isHigh(){\r\n        require(msg.value + pendingReturns[msg.sender] > highestBid,\r\n        \"The amount is not enough to overcome the previous bid.\"\r\n        );\r\n        _;\r\n    }\r\n\r\n    event HighestBidIncreased(address bidder, uint amount);\r\n    event AuctionEnded(address winner, uint amount);\r\n\r\n    constructor() public payable {\r\n        // El beneficiario es el cacao cultor.\r\n        beneficiary = msg.sender;\r\n        // Cantidad de segundo que durara la subasta (Seis meses)\r\n        sixmonth = 500;\r\n        // Señala la fecha de culminacion de la subasta.\r\n        biddingTime = now + sixmonth;\r\n    }\r\n\r\n    function bid() public payable isOpen isHigh returns(bool){\r\n        closeIt();\r\n        require(msg.sender != highestBidder,\r\n        \"HighestBidder cannot make rebidding.\"\r\n        );\r\n        require(pendingReturns[msg.sender] == 0,\r\n        \"You have a pending found, make rebidding\");\r\n        pendingReturns[highestBidder] = highestBid;\r\n        highestBid = msg.value;\r\n        highestBidder = msg.sender;\r\n        return true;\r\n    }\r\n\r\n    function rebidding() public payable isOpen isHigh returns(bool){\r\n        closeIt();\r\n        require(msg.sender != highestBidder,\r\n        \"HighestBidder cannot make rebidding.\"\r\n        );\r\n        require(pendingReturns[msg.sender] > 0,\r\n        \"This function only work if you have a overcame bid.\"\r\n        );\r\n        pendingReturns[highestBidder] = highestBid;\r\n        highestBid = msg.value + pendingReturns[msg.sender];\r\n        pendingReturns[msg.sender] = 0;\r\n        highestBidder = msg.sender;\r\n        return true;\r\n    }\r\n\r\n    function auctionEnd() public returns(bool){\r\n        require(msg.sender == beneficiary,\r\n        \"Only beneficiary can call this function.\"\r\n        );\r\n        require(block.timestamp > biddingTime,\r\n        \"Auction isn't ended yet.\"\r\n        );\r\n        emit AuctionEnded(highestBidder, highestBid);\r\n        beneficiary.transfer(highestBid);\r\n        closeIt();\r\n    }\r\n\r\n    function myPendingFunds() public view returns (uint){\r\n        return pendingReturns[msg.sender];\r\n    }\r\n\r\n    function closeIt() internal returns (bool) {\r\n        if (biddingTime < block.timestamp) {\r\n            open = false;\r\n            return open;\r\n        }\r\n    }\r\n\r\n    function isClosed () public view returns(bool) {\r\n        return !open;\r\n    }\r\n\r\n    function withdrawPendings() public returns(bool){\r\n        require(pendingReturns[msg.sender] > 0,\r\n        \"You don't have any funds on this contract.\"\r\n        );\r\n        uint amount = pendingReturns[msg.sender];\r\n        if (amount > 0) {\r\n            pendingReturns[msg.sender] = 0;\r\n            if (!msg.sender.send(amount)) {\r\n                pendingReturns[msg.sender] = amount;\r\n                return false;\r\n            }\r\n        }\r\n        return true;\r\n    }\r\n}",
  "sourcePath": "C:/Users/Choco/Repos/ChocoAuction/contracts/ChocoAuction.sol",
  "compiler": {
    "name": "solc",
    "version": "0.5.0+commit.1d4f565a.Emscripten.clang"
  },
  "schemaVersion": "3.0.3",
  "updatedAt": "2019-06-15T07:12:33.769Z",
  "devdoc": {
    "methods": {}
  },
  "userdoc": {
    "methods": {}
  }
}