{
  "contractName": "ChocoAuction",
  "abi": [
    {
      "constant": true,
      "inputs": [],
      "name": "beneficiary",
      "outputs": [
        {
          "name": "",
          "type": "address"
        }
      ],
      "payable": false,
      "stateMutability": "view",
      "type": "function"
    },
    {
      "constant": true,
      "inputs": [],
      "name": "highestBidder",
      "outputs": [
        {
          "name": "",
          "type": "address"
        }
      ],
      "payable": false,
      "stateMutability": "view",
      "type": "function"
    },
    {
      "constant": true,
      "inputs": [],
      "name": "highestBid",
      "outputs": [
        {
          "name": "",
          "type": "uint256"
        }
      ],
      "payable": false,
      "stateMutability": "view",
      "type": "function"
    },
    {
      "inputs": [],
      "payable": true,
      "stateMutability": "payable",
      "type": "constructor"
    },
    {
      "anonymous": false,
      "inputs": [
        {
          "indexed": false,
          "name": "bidder",
          "type": "address"
        },
        {
          "indexed": false,
          "name": "amount",
          "type": "uint256"
        }
      ],
      "name": "HighestBidIncreased",
      "type": "event"
    },
    {
      "anonymous": false,
      "inputs": [
        {
          "indexed": false,
          "name": "winner",
          "type": "address"
        },
        {
          "indexed": false,
          "name": "amount",
          "type": "uint256"
        }
      ],
      "name": "AuctionEnded",
      "type": "event"
    },
    {
      "constant": false,
      "inputs": [],
      "name": "bid",
      "outputs": [
        {
          "name": "",
          "type": "bool"
        }
      ],
      "payable": true,
      "stateMutability": "payable",
      "type": "function"
    },
    {
      "constant": false,
      "inputs": [],
      "name": "rebidding",
      "outputs": [
        {
          "name": "",
          "type": "bool"
        }
      ],
      "payable": true,
      "stateMutability": "payable",
      "type": "function"
    },
    {
      "constant": false,
      "inputs": [],
      "name": "auctionEnd",
      "outputs": [
        {
          "name": "",
          "type": "bool"
        }
      ],
      "payable": false,
      "stateMutability": "nonpayable",
      "type": "function"
    },
    {
      "constant": true,
      "inputs": [],
      "name": "myPendingFunds",
      "outputs": [
        {
          "name": "",
          "type": "uint256"
        }
      ],
      "payable": false,
      "stateMutability": "view",
      "type": "function"
    },
    {
      "constant": true,
      "inputs": [],
      "name": "isClosed",
      "outputs": [
        {
          "name": "",
          "type": "bool"
        }
      ],
      "payable": false,
      "stateMutability": "view",
      "type": "function"
    },
    {
      "constant": false,
      "inputs": [],
      "name": "withdrawPendings",
      "outputs": [
        {
          "name": "",
          "type": "bool"
        }
      ],
      "payable": false,
      "stateMutability": "nonpayable",
      "type": "function"
    }
  ],
  "bytecode": "0x6080604052635dbb75806003556001600560006101000a81548160ff021916908315150217905550336000806101000a81548173ffffffffffffffffffffffffffffffffffffffff021916908373ffffffffffffffffffffffffffffffffffffffff160217905550600354600481905550610f258061007f6000396000f3fe6080604052600436106100865760003560e01c806391f901571161005957806391f9015714610162578063bc87f620146101b9578063c2b6b58c146101e4578063cdf8b6bf14610213578063d57bde791461023557610086565b80631998aeef1461008b5780632a24f46c146100ad57806338af3eed146100dc5780634ae203cc14610133575b600080fd5b610093610260565b604051808215151515815260200191505060405180910390f35b3480156100b957600080fd5b506100c2610568565b604051808215151515815260200191505060405180910390f35b3480156100e857600080fd5b506100f161078b565b604051808273ffffffffffffffffffffffffffffffffffffffff1673ffffffffffffffffffffffffffffffffffffffff16815260200191505060405180910390f35b34801561013f57600080fd5b506101486107b0565b604051808215151515815260200191505060405180910390f35b34801561016e57600080fd5b5061017761096c565b604051808273ffffffffffffffffffffffffffffffffffffffff1673ffffffffffffffffffffffffffffffffffffffff16815260200191505060405180910390f35b3480156101c557600080fd5b506101ce610992565b6040518082815260200191505060405180910390f35b3480156101f057600080fd5b506101f96109d9565b604051808215151515815260200191505060405180910390f35b61021b6109f1565b604051808215151515815260200191505060405180910390f35b34801561024157600080fd5b5061024a610d7f565b6040518082815260200191505060405180910390f35b600060011515600560009054906101000a900460ff161515146102ce576040517f08c379a0000000000000000000000000000000000000000000000000000000008152600401808060200182810382526030815260200180610eca6030913960400191505060405180910390fd5b600254600660003373ffffffffffffffffffffffffffffffffffffffff1673ffffffffffffffffffffffffffffffffffffffff16815260200190815260200160002054340111610369576040517f08c379a0000000000000000000000000000000000000000000000000000000008152600401808060200182810382526035815260200180610df06035913960400191505060405180910390fd5b610371610d85565b50600160009054906101000a900473ffffffffffffffffffffffffffffffffffffffff1673ffffffffffffffffffffffffffffffffffffffff163373ffffffffffffffffffffffffffffffffffffffff161415610419576040517f08c379a0000000000000000000000000000000000000000000000000000000008152600401808060200182810382526023815260200180610e4c6023913960400191505060405180910390fd5b6000600660003373ffffffffffffffffffffffffffffffffffffffff1673ffffffffffffffffffffffffffffffffffffffff16815260200190815260200160002054146104b1576040517f08c379a0000000000000000000000000000000000000000000000000000000008152600401808060200182810382526028815260200180610dc86028913960400191505060405180910390fd5b60025460066000600160009054906101000a900473ffffffffffffffffffffffffffffffffffffffff1673ffffffffffffffffffffffffffffffffffffffff1673ffffffffffffffffffffffffffffffffffffffff168152602001908152602001600020819055503460028190555033600160006101000a81548173ffffffffffffffffffffffffffffffffffffffff021916908373ffffffffffffffffffffffffffffffffffffffff1602179055506001905090565b60008060009054906101000a900473ffffffffffffffffffffffffffffffffffffffff1673ffffffffffffffffffffffffffffffffffffffff163373ffffffffffffffffffffffffffffffffffffffff161461060f576040517f08c379a0000000000000000000000000000000000000000000000000000000008152600401808060200182810382526027815260200180610e256027913960400191505060405180910390fd5b6004544211610686576040517f08c379a00000000000000000000000000000000000000000000000000000000081526004018080602001828103825260178152602001807f41756374696f6e2069736e277420656e6465642079657400000000000000000081525060200191505060405180910390fd5b7fdaec4582d5d9595688c8c98545fdd1c696d41c6aeaeb636737e84ed2f5c00eda600160009054906101000a900473ffffffffffffffffffffffffffffffffffffffff16600254604051808373ffffffffffffffffffffffffffffffffffffffff1673ffffffffffffffffffffffffffffffffffffffff1681526020018281526020019250505060405180910390a16000809054906101000a900473ffffffffffffffffffffffffffffffffffffffff1673ffffffffffffffffffffffffffffffffffffffff166108fc6002549081150290604051600060405180830381858888f1935050505015801561077e573d6000803e3d6000fd5b50610787610d85565b5090565b6000809054906101000a900473ffffffffffffffffffffffffffffffffffffffff1681565b600080600660003373ffffffffffffffffffffffffffffffffffffffff1673ffffffffffffffffffffffffffffffffffffffff1681526020019081526020016000205411610849576040517f08c379a0000000000000000000000000000000000000000000000000000000008152600401808060200182810382526029815260200180610e6f6029913960400191505060405180910390fd5b6000600660003373ffffffffffffffffffffffffffffffffffffffff1673ffffffffffffffffffffffffffffffffffffffff1681526020019081526020016000205490506000811115610963576000600660003373ffffffffffffffffffffffffffffffffffffffff1673ffffffffffffffffffffffffffffffffffffffff168152602001908152602001600020819055503373ffffffffffffffffffffffffffffffffffffffff166108fc829081150290604051600060405180830381858888f193505050506109625780600660003373ffffffffffffffffffffffffffffffffffffffff1673ffffffffffffffffffffffffffffffffffffffff168152602001908152602001600020819055506000915050610969565b5b60019150505b90565b600160009054906101000a900473ffffffffffffffffffffffffffffffffffffffff1681565b6000600660003373ffffffffffffffffffffffffffffffffffffffff1673ffffffffffffffffffffffffffffffffffffffff16815260200190815260200160002054905090565b6000600560009054906101000a900460ff1615905090565b600060011515600560009054906101000a900460ff16151514610a5f576040517f08c379a0000000000000000000000000000000000000000000000000000000008152600401808060200182810382526030815260200180610eca6030913960400191505060405180910390fd5b600254600660003373ffffffffffffffffffffffffffffffffffffffff1673ffffffffffffffffffffffffffffffffffffffff16815260200190815260200160002054340111610afa576040517f08c379a0000000000000000000000000000000000000000000000000000000008152600401808060200182810382526035815260200180610df06035913960400191505060405180910390fd5b610b02610d85565b50600160009054906101000a900473ffffffffffffffffffffffffffffffffffffffff1673ffffffffffffffffffffffffffffffffffffffff163373ffffffffffffffffffffffffffffffffffffffff161415610baa576040517f08c379a0000000000000000000000000000000000000000000000000000000008152600401808060200182810382526023815260200180610e4c6023913960400191505060405180910390fd5b6000600660003373ffffffffffffffffffffffffffffffffffffffff1673ffffffffffffffffffffffffffffffffffffffff1681526020019081526020016000205411610c42576040517f08c379a0000000000000000000000000000000000000000000000000000000008152600401808060200182810382526032815260200180610e986032913960400191505060405180910390fd5b60025460066000600160009054906101000a900473ffffffffffffffffffffffffffffffffffffffff1673ffffffffffffffffffffffffffffffffffffffff1673ffffffffffffffffffffffffffffffffffffffff16815260200190815260200160002081905550600660003373ffffffffffffffffffffffffffffffffffffffff1673ffffffffffffffffffffffffffffffffffffffff1681526020019081526020016000205434016002819055506000600660003373ffffffffffffffffffffffffffffffffffffffff1673ffffffffffffffffffffffffffffffffffffffff1681526020019081526020016000208190555033600160006101000a81548173ffffffffffffffffffffffffffffffffffffffff021916908373ffffffffffffffffffffffffffffffffffffffff1602179055506001905090565b60025481565b6000426004541015610dc3576000600560006101000a81548160ff021916908315150217905550600560009054906101000a900460ff169050610dc4565b5b9056fe596f75206861766520612070656e64696e6720666f756e642c206d616b6520726562696464696e6754686520616d6f756e74206973206e6f7420656e6f75676820746f206f766572636f6d65207468652070726576696f7573206269644f6e6c792062656e65666963696172792063616e2063616c6c20746869732066756e6374696f6e486967686573744269646465722063616e6e6f74206d616b6520726562696464696e67596f7520646f6e2774206861766520616e792066756e6473206f6e207468697320636f6e7472616374546869732066756e6374696f6e206f6e6c7920776f726b20696620796f7520686176652061206f76657263616d6520626964497320746f6f206c61746520746f206d616b652061206269642e205468652061756374696f6e2068617320656e646564a165627a7a72305820845503aa8203921838cd6070922f924dca874d876d680a76ba8ca4839b36e1090029",
  "source": "pragma solidity ^0.5.8;\r\n\r\ncontract ChocoAuction{\r\n    address payable public beneficiary;\r\n    address public highestBidder;\r\n    uint public highestBid;\r\n    uint Fri_Nov_01_00_00_UTC_2019 = 1572566400;\r\n    uint endAuctionDay;\r\n    bool open = true;\r\n\r\n    mapping(address => uint) pendingReturns;\r\n\r\n    modifier isOpen(){\r\n        require(open == true,\r\n        \"Is too late to make a bid. The auction has ended\"\r\n        );\r\n        _;\r\n    }\r\n\r\n    modifier isHigh(){\r\n        require(msg.value + pendingReturns[msg.sender] > highestBid,\r\n        \"The amount is not enough to overcome the previous bid\"\r\n        );\r\n        _;\r\n    }\r\n\r\n    event HighestBidIncreased(address bidder, uint amount);\r\n    event AuctionEnded(address winner, uint amount);\r\n\r\n    constructor() public payable {\r\n        // El beneficiario es el cacao cultor.\r\n        beneficiary = msg.sender;\r\n        // Señala la fecha de culminacion de la subasta.\r\n        endAuctionDay = Fri_Nov_01_00_00_UTC_2019;\r\n    }\r\n\r\n    function bid() public payable isOpen isHigh returns(bool){\r\n        closeIt();\r\n        require(msg.sender != highestBidder,\r\n        \"HighestBidder cannot make rebidding\"\r\n        );\r\n        require(pendingReturns[msg.sender] == 0,\r\n        \"You have a pending found, make rebidding\");\r\n        pendingReturns[highestBidder] = highestBid;\r\n        highestBid = msg.value;\r\n        highestBidder = msg.sender;\r\n        return true;\r\n    }\r\n\r\n    function rebidding() public payable isOpen isHigh returns(bool){\r\n        closeIt();\r\n        require(msg.sender != highestBidder,\r\n        \"HighestBidder cannot make rebidding\"\r\n        );\r\n        require(pendingReturns[msg.sender] > 0,\r\n        \"This function only work if you have a overcame bid\"\r\n        );\r\n        pendingReturns[highestBidder] = highestBid;\r\n        highestBid = msg.value + pendingReturns[msg.sender];\r\n        pendingReturns[msg.sender] = 0;\r\n        highestBidder = msg.sender;\r\n        return true;\r\n    }\r\n\r\n    function auctionEnd() public returns(bool){\r\n        require(msg.sender == beneficiary,\r\n        \"Only beneficiary can call this function\"\r\n        );\r\n        require(block.timestamp > endAuctionDay,\r\n        \"Auction isn't ended yet\"\r\n        );\r\n        emit AuctionEnded(highestBidder, highestBid);\r\n        beneficiary.transfer(highestBid);\r\n        closeIt();\r\n    }\r\n\r\n    function myPendingFunds() public view returns (uint){\r\n        return pendingReturns[msg.sender];\r\n    }\r\n\r\n    function closeIt() internal returns (bool) {\r\n        if (endAuctionDay < block.timestamp) {\r\n            open = false;\r\n            return open;\r\n        }\r\n    }\r\n\r\n    function isClosed () public view returns(bool) {\r\n        return !open;\r\n    }\r\n\r\n    function withdrawPendings() public returns(bool){\r\n        require(pendingReturns[msg.sender] > 0,\r\n        \"You don't have any funds on this contract\"\r\n        );\r\n        uint amount = pendingReturns[msg.sender];\r\n        if (amount > 0) {\r\n            pendingReturns[msg.sender] = 0;\r\n            if (!msg.sender.send(amount)) {\r\n                pendingReturns[msg.sender] = amount;\r\n                return false;\r\n            }\r\n        }\r\n        return true;\r\n    }\r\n}",
  "sourcePath": "C:/Users/Choco/Repos/ChocoAuction/contracts/ChocoAuction.sol",
  "compiler": {
    "name": "solc",
    "version": "0.5.8+commit.23d335f2.Emscripten.clang"
  },
  "schemaVersion": "3.0.11",
  "updatedAt": "2019-06-16T14:51:04.673Z",
  "devdoc": {
    "methods": {}
  },
  "userdoc": {
    "methods": {}
  }
}